:020000040800F2
:100000007805002045010008BD010008BF01000877
:10001000C3010008C7010008CB0100080000000070
:10002000000000000000000000000000CF010008F8
:10003000D101000800000000D3010008D50100082C
:100040005F0100085F0100085F0100085F01000810
:100050005F0100085F0100085F0100085F01000800
:100060005F0100085F0100085F0100085F010008F0
:100070005F0100085F0100085F0100085F010008E0
:100080005F0100085F0100085F0100085F010008D0
:100090005F0100085F0100085F0100085F010008C0
:1000A0005F0100085F0100085F0100085F010008B0
:1000B000212500089D250008092500085F0100088A
:1000C0005F0100085F0100085F0100085F01000890
:1000D0005F010008571F0008A52000085F01000805
:1000E0005F0100085F0100085F0100085F01000870
:1000F0005F0100085F0100085F0100085F01000860
:100100005F0100085F0100085F0100085F0100084F
:100110005F0100085F0100085F0100085F0100083F
:100120005F0100085F0100085F0100085F0100082F
:10013000DFF80CD002F048FF0048004769010008D2
:10014000780500200648804706480047FEE7FEE79E
:10015000FEE7FEE7FEE7FEE7FEE7FEE7FEE7FEE777
:10016000B71C00083101000801F034FE01F024FE44
:100170004FF4E13001F0ABFE01F032FF02F006F97E
:1001800002F052F902F0A4FA002141F61F4002F0F9
:100190004FFA4FF4E13001F039FF472142F20F707E
:1001A00002F0D0F904A002F031FF04E000BF01F03A
:1001B000BBFF0028FBD1F9E76F6B0000704700BF61
:1001C000FEE700BFFEE700BFFEE700BFFEE77047A7
:1001D000704770477047000031490143314A116050
:1001E000704770B5002100230F22C47804B32D4C52
:1001F000246804F4E064C4F5E064210AC1F1040356
:10020000CA40447804FA03F1847814402143090178
:10021000254C0678A155047804F01F050124AC4054
:1002200005786D11AD0005F1E025C5F8004109E044
:10023000047804F01F050124AC401C4D06787611AB
:1002400045F8264070BD1A4A0A400243154B1B1F51
:100250001A60704739B1134A121D12680243114BDC
:100260001B1D1A6006E00F4A121D126882430D4BD7
:100270001B1D1A607047042808D14FF0E02109695E
:1002800041F004014FF0E022116107E04FF0E0215E
:10029000096921F004014FF0E0221161704700006C
:1002A0000000FA050CED00E000E400E080E100E071
:1002B00080FFFF1F10B50446CC48844208D10121BD
:1002C000042000F02DFB0021042000F029FB46E073
:1002D000C748844208D10121082000F021FB0021F9
:1002E000082000F01DFB3AE0C248844208D10121F9
:1002F000102000F015FB0021102000F011FB2EE073
:10030000BD48844208D10121202000F009FB0021D2
:10031000202000F005FB22E0B848844208D10121EA
:10032000402000F0FDFA0021402000F0F9FA16E02C
:10033000B348844208D10121802000F0F1FA002165
:10034000802000F0EDFA0AE0AE48844207D1012196
:10035000801500F0E5FA0021A01500F0E1FA10BDCB
:1003600010B50121084600F0DBFA0021012000F061
:10037000D7FA10BD2DE9F0410246002500260020E5
:1003800000230024002791F803C00CF00F0591F81A
:1003900003C00CF0100CBCF1000F03D091F802C0A8
:1003A0004CEA050591F800C0BCF1000F31D014688B
:1003B00000202BE04FF0010C0CFA00F3B1F800C064
:1003C0000CEA03069E4220D183004FF00F0C0CFA7A
:1003D00003F7BC4305FA03FC4CEA040491F803C09C
:1003E000BCF1280F06D14FF0010C0CFA00FCC2F84A
:1003F00014C00AE091F803C0BCF1480F05D14FF0DA
:10040000010C0CFA00FCC2F810C0401C0828D1D323
:100410001460B1F800C0BCF1FF0F34DD5468002057
:100420002EE000F1080C4FF0010808FA0CF3B1F8C7
:1004300000C00CEA03069E4221D183004FF00F0C4E
:100440000CFA03F7BC4305FA03FC4CEA040491F8E8
:1004500003C0BCF1280F05D100F1080C08FA0CF814
:10046000C2F8148091F803C0BCF1480F07D100F125
:10047000080C4FF0010808FA0CF8C2F81080401C74
:100480000828CED35460BDE8F0814FF6FF7101809B
:10049000022181700421C1707047024600209368D8
:1004A0000B400BB1012000E0002070470146886836
:1004B00080B2704702460020D3680B400BB1012088
:1004C00000E0002070470146C86880B270470161B3
:1004D0007047416170470AB1016100E041617047B6
:1004E000C16070474FF480320A438261816182614A
:1004F00082698269704702460020434B18684FF6B4
:100500008073184040EA021008433F4B1860704760
:100510003E49C8617047F0B50A4600230024002117
:10052000002500F00046B6F1004F02D1364EF169C9
:1005300001E0354E7168C0F3034583B200F4401604
:10054000B6F5401F08D121F070612F4E766826F075
:1005500070662D4F7E6012E000F48016B6F5801FA5
:1005600006D1032606FA05F4A14341F0706106E0C6
:10057000460D360103FA06F6B14341F0706122B12F
:10058000460D360103FA06F6314300F00046B6F197
:10059000004F02D11C4EF16101E01B4E7160F0BDB5
:1005A00030B500228B071C0F0F2303FA04F2164B01
:1005B00008338C1053F824309343134C08348D10B7
:1005C00044F8253023468C1053F824308C07240F30
:1005D00000FA04F423430C4C08348D1044F8253001
:1005E00030BD0A49DC310860704700000008014056
:1005F000000C0140001001400014014000180140AF
:10060000001C014000200140000001400000204289
:10061000DF48006840F00100DD4908600846406896
:10062000DC490840DA49486008460068DA49084071
:10063000D74908600846006820F480200860084612
:10064000406820F4FE0048604FF41F008860704747
:10065000CF49096821F48031CD4A116011460968FB
:1006600021F480211160B0F5803F03D0B0F5802FD8
:100670000ED106E0C649096841F48031C44A1160D0
:1006800007E0C349096841F4A021C14A116000E0B4
:1006900000BF00BF704710B50146002200230020B4
:1006A0004A11012A02D1BA4C236806E0022A02D17B
:1006B000B74C236A01E0B64C636A01F01F020124C3
:1006C00094401C400CB1012000E0002010BD38B562
:1006D000002000900024002500BF3120FFF7DBFF41
:1006E00005460098401C00900098B0F5A06F01D01E
:1006F000002DF2D03120FFF7CEFF08B1012400E039
:100700000024204638BD01460020A14A106820F090
:10071000F80040EAC10010607047A04908607047C7
:10072000024600209A4B586820F47C1042EA0103EC
:100730001843974B586070479849086670470146C0
:100740000020934A506820F003000843506070472F
:100750008F48406800F00C007047014600208C4A2A
:10076000506820F0F00008435060704701460020B8
:10077000874A506820F4E0600843506070470146A3
:100780000020834A506820F4605040EAC100506065
:10079000704729B17E4A527A02437D4B5A7204E077
:1007A0007B4A527A82437A4B5A7270477B49D831DE
:1007B0000860704701460020754A506820F44040A8
:1007C0000843506070470021714A20321170704A0E
:1007D00082F82010012802D004280AD104E0012167
:1007E0006B4A2032117005E00521694A20321170F0
:1007F00000E000BF00BF7047694908607047644966
:10080000096A0143624A11627047654944390860C8
:10081000704730B500210022002400235C4D6D6834
:1008200005F00C0121B1042905D0082923D105E0E8
:100830005C4D056022E05B4D05601FE0544D6D6826
:1008400005F47012524D6D6805F48034022505EBF5
:1008500092421CB9544D554305600BE04C4D6D68F8
:1008600005F400351DB1504D5543056002E04D4D76
:100870005543056002E04B4D056000BF00BF444D8D
:100880006D6805F0F0010909484D6B5C0568DD40B5
:1008900045603F4D6D6805F4E061090A434D6B5CAE
:1008A0004568DD4085603A4D6D6805F46051C90AC0
:1008B0003E4D6B5C4568DD40C560354D6D6805F4A7
:1008C0004041890B3A4D6B5CC568B5FBF3F505619A
:1008D00030BD29B12E4A526902432D4B5A6104E0C2
:1008E0002B4A526982432A4B5A61704729B1284AE0
:1008F00092690243264B9A6104E0254A9269824339
:10090000234B9A61704729B1214AD2690243204B97
:10091000DA6104E01E4AD26982431D4BDA617047F6
:1009200029B11B4AD2680243194BDA6004E0184A25
:10093000D2688243164BDA60704729B1144A1269B3
:100940000243134B1A6104E0114A12698243104BAF
:100950001A61704712494039086070470F49C864EE
:1009600070470B49C87170470948406A40F0807071
:1009700007494862704701460020054A92680A40CC
:100980000AB1012000E000207047014988727047D9
:10099000001002400000FFF8FFFFF6FE0000424298
:1009A0008004424200127A0000093D00000000204D
:1009B0001000002010B50446FE48844208D10121F1
:1009C000C014FFF7ADFF0021E014FFF7A9FFC4E05A
:1009D000B4F1804F08D101210846FFF7AEFF002196
:1009E0000120FFF7AAFFB8E0F348844208D10121B3
:1009F0000220FFF7A2FF00210220FFF79EFFACE0DC
:100A0000EE48844208D101210420FFF796FF00211F
:100A10000420FFF792FFA0E0E948844208D10121B9
:100A20000820FFF78AFF00210820FFF786FF94E0E7
:100A3000E448844208D101211020FFF77EFF002105
:100A40001020FFF77AFF88E0DF48844208D10121B7
:100A50002020FFF772FF00212020FFF76EFF7CE0CF
:100A6000DA48844208D101214014FFF759FF0021E0
:100A70006014FFF755FF70E0D548844209D1012189
:100A8000C804FFF74DFF00214FF40020FFF748FF97
:100A900063E0D048844209D101210805FFF740FFF7
:100AA00000214FF48010FFF73BFF56E0CA48844214
:100AB00009D101214805FFF733FF00214FF4001051
:100AC000FFF72EFF49E0C548844208D101214020AC
:100AD000FFF733FF00214020FFF72FFF3DE0C04824
:100AE000844208D101218020FFF727FF00218020C8
:100AF000FFF723FF31E0BB48844208D10121801574
:100B0000FFF71BFF0021A015FFF717FF25E0B648F0
:100B1000844209D101210804FFF702FF00214FF4AC
:100B20008030FFF7FDFE18E0B048844209D1012172
:100B30004804FFF7F5FE00214FF40030FFF7F0FE08
:100B40000BE0AB48844208D101218804FFF7E8FE9E
:100B500000214FF48020FFF7E3FE10BD0022028841
:100B6000944B98420ED0994B98420BD0B0F1804FE5
:100B700008D0914B984205D0904B984202D0904BB0
:100B8000984204D14FF68F731A404B881A438D4B0D
:100B9000984207D08C4B984204D04FF6FF431A403E
:100BA000CB881A4302808B8883850B880385814B11
:100BB00098420BD0854B984208D08B4B984205D079
:100BC0008A4B984202D08A4B984201D10B7A038615
:100BD00001238382704770B5002400220023058C16
:100BE0004FF6FE7635400584028C8388048B4FF6E1
:100BF0008F752C40B51E2C400D882C43751E2A4045
:100C00000D892A434D882A436A4DA8420BD06F4D67
:100C1000A84208D0744DA84205D0744DA84202D015
:100C2000734DA84213D14FF6F7752A404D892A43D8
:100C30004FF6FB752A408D882A434FF6FF652B40FF
:100C40004FF6FF552B408D892B43CD892B43838055
:100C50000483CD888586028470BD70B5002400228F
:100C60000023058C4FF6EF7635400584028C83888F
:100C7000048B48F6FF752C404FF6FF452C400D883D
:100C80004FF6FF7606EA05252C434FF6DF752A401E
:100C90000D8906EA05152A434D8806EA05152A43FB
:100CA000444DA84202D0494DA8421DD14FF67F7550
:100CB0002A404D894FF6FF7606EA05152A434FF67E
:100CC000BF752A408D8806EA05152A434FF6FF3581
:100CD0002B404FF2FF752B408D8906EA85052B438B
:100CE000CD8906EA85052B4383800483CD8805875B
:100CF000028470BD70B5002400220023058C4FF6DD
:100D0000FF6635400584028C8388848B4FF68F758F
:100D10002C404FF6FC752C400D882C434FF6FF55A8
:100D20002A400D894FF6FF7606EA05252A434D88AD
:100D300006EA05252A431F4DA84202D0234DA842AA
:100D40001DD14FF2FF752A404D894FF6FF7606EA16
:100D500005252A434FF6FF352A408D8806EA0525EA
:100D60002A434EF6FF752B404DF6FF752B408D89BB
:100D700006EA05152B43CD8906EA05152B4383802A
:100D80008483CD888587028470BD70B500220023DE
:100D90000024058C4EF6FF7635400584038C84884C
:100DA000828B48F6FF752A404FF6FF452A400D8892
:100DB00020E00000002C014000040040000800403A
:100DC000000C0040001000400014004000340140BE
:100DD000004C014000500140005401400018004008
:100DE000001C004000200040004001400044014041
:100DF000004801404FF6FF7606EA05252A434DF6E6
:100E0000FF752B400D8906EA05352B434D8806EA10
:100E100005352B43FA4DA84202D0FA4DA84208D11D
:100E20004BF6FF752C408D894FF6FF7606EA851547
:100E30002C4384808283CD88A0F84050038470BD09
:100E4000828B4FF2FF331A408283828B4FF6FF73FF
:100E500003EA01231A4382837047F0B50C46154616
:100E6000002200210026078C4EF6FF7C07EA0C07C3
:100E70000784828B018C4FF6FF7707EA043640F631
:100E8000FF473A404FF6FF7707EA05273A434FF608
:100E9000FF7707EA03373A43D94FB8420ED0D94F0C
:100EA000B8420BD0B0F1804F08D0D74FB84205D030
:100EB000D64FB84202D0D64FB84206D14DF6FF7792
:100EC000394046F48057394305E047F6FF5739402B
:100ED00044F48057394382830184F0BD828B4FF6FE
:100EE000F3731A408283828B0A4382837047F0B582
:100EF0000C461546002200210026078C4FF6FF6C99
:100F000007EA0C070784828B018C4FF6FF7707EA0C
:100F100004264FF60C773A404FF6FF7707EA03179F
:100F20002F433A43B64FB8420ED0B64FB8420BD01B
:100F3000B0F1804F08D0B44FB84205D0B34FB8429B
:100F400002D0B34FB84206D14FF6FF57394046F4AE
:100F50008077394305E04FF2FF57394044F48077FA
:100F6000394382830184F0BD028B4FF2FF331A4074
:100F70000283028B4FF6FF7303EA01231A430283B5
:100F80007047F0B50C461546002200210026078C5C
:100F90004FF6EF7C07EA0C070784028B018C4FF6B3
:100FA000FF7707EA041640F6FF473A404FF6FF770F
:100FB00007EA03373A434FF6FF7707EA05273A4334
:100FC0008F4FB8420ED08F4FB8420BD0B0F1804F48
:100FD00008D08D4FB84205D08C4FB84202D08C4F0C
:100FE000B84206D14FF6DF77394046F01007394353
:100FF00005E04FF65F77394044F01007394302832C
:101000000184F0BD028B4FF6F3731A400283028B0A
:101010000A4302837047F0B50C46154600220021B2
:10102000068C4FF6FE773E400684028B018C4FF60D
:101030000C7632407E1C06EA03162E433243704E75
:10104000B0420ED06F4EB0420BD0B0F1804F08D0FE
:101050006D4EB04205D06D4EB04202D06C4EB042E3
:1010600006D14FF6FD76314044F00106314305E0EC
:101070004FF6F576314044F0010631430283018496
:10108000F0BD70B505460C465D4885420ED05D4802
:1010900085420BD0B5F1804F08D05B48854205D022
:1010A0005A48854202D05A48854200D100E000BF2C
:1010B000208850B92389A28861882846FFF7ABFFB2
:1010C000E1882846FFF79EFF25E0208804280AD102
:1010D0002389A28861882846FFF753FFE1882846C4
:1010E000FFF742FF17E0208808280AD12389A28849
:1010F00061882846FFF7FBFEE1882846FFF7EEFEF1
:1011000009E02389A28861882846FFF7A6FEE188C6
:101110002846FFF795FE70BD2DE9F04105460C46C7
:1011200000260127608808B9022600E00026A08872
:10113000012801D1022700E001272088A0B92389D6
:10114000A28861882846FFF766FFE1882846FFF7F6
:1011500059FF23893A4631462846FFF712FFE188B6
:101160002846FFF701FF13E02389A28861882846FB
:10117000FFF707FFE1882846FFF7F6FE23893A4686
:1011800031462846FFF747FFE1882846FFF73AFF38
:10119000BDE8F0810A884B881A438B881A43CB88B4
:1011A0001A430B891A434B891A438B891A43A0F8B7
:1011B000442070474FF6FF71818000210180C1807B
:1011C0004180017270470021018041808180C1808F
:1011D000018141818181C18170470021018041806D
:1011E000012181800021C18001817047002101809F
:1011F00041808180C18001814181818170470000EF
:10120000002C014000340140000400400008004070
:10121000000C004021B1028842F00102028004E08B
:1012200002884FF6FE731A400280704731B1B0F861
:10123000442042F40042A0F8442005E0B0F84420E5
:10124000C2F30E02A0F8442070471AB183890B4301
:10125000838102E083898B43838170478182704759
:1012600041EA0203A0F8483070471AB183890B4362
:10127000838102E083898B438381704701894FF624
:10128000F8721140018170470A46002101894FF62A
:101290008F73194011430181704730B504460D46E4
:1012A00029462046FFF7F0FF208940F00700208103
:1012B00030BD2DE9F04104460D4616461F46602D0F
:1012C00006D13B46012231462046FFF75AFE05E093
:1012D0003B46012231462046FFF79DFE2946204627
:1012E000FFF7D2FF208940F007002081BDE8F081A0
:1012F00030B50C4600210189C9B24FF6FF7505EAE9
:101300000325154325432943018130BD2DE9F041D3
:1013100005460E4617469846002443463A4631464F
:101320002846FFF7E5FF2C894FF6F870044044F09B
:1013300007044FF68F70044044F070042C81BDE820
:10134000F081F0B504460D4616461F463B46324630
:1013500029462046FFF7CCFF208940F480402081B9
:10136000F0BD0185828270470A46002101884FF650
:101370008F731940114301807047F0B50C46154634
:101380001E460021002200230189028B038C4FF6A8
:10139000F877394021434FF6FC473A4040F20117B5
:1013A0003A434FF6DD773B404FF6FF7707EA0617E3
:1013B0002F433B43018102830384F0BD0A46002191
:1013C000018B4FF68F7319401143018370470A4612
:1013D0000021018B48F6FF7319404FF6FF7303EAB3
:1013E00002231943018370470A460021818B4FF67F
:1013F0008F7319401143818370470A460021818B06
:1014000048F6FF7319404FF6FF7303EA02231943AE
:101410008183704721B1028842F08002028004E09B
:1014200002884FF67F731A400280704721B182888C
:1014300042F00402828004E082884FF6FB731A4077
:101440008280704721B1828842F00802828004E0E5
:1014500082884FF6F7731A408280704721B18288E4
:1014600042F00102828004E082884FF6FE731A4047
:10147000828070470A460021018B4FF6F7731940AE
:101480001143018370470A460021018B4FF2FF731D
:1014900019404FF6FF7303EA022319430183704793
:1014A0000A460021818B4FF6F7731940114381835F
:1014B00070470A460021818B4FF2FF7319404FF6A7
:1014C000FF7303EA02231943818370470A46002110
:1014D000018B4FF6FB7319401143018370470A4695
:1014E0000021018B4FF6FF3319404FF6FF7303EADB
:1014F00002231943018370470A460021818B4FF66E
:10150000FB7319401143818370470A460021818B88
:101510004FF6FF3319404FF6FF7303EA02231943D6
:10152000818370470A460021018B4FF67F73194073
:101530001143018370470A460021018BC1F30E015C
:101540004FF6FF7303EA02231943018370470A46EB
:101550000021818B4FF67F731940114381837047BF
:101560000A460021818BC1F30E014FF6FF7303EA97
:1015700002231943818370470A460021018C4FF6EC
:10158000FD7319401143018470470A460021018C04
:101590004FF6F77319401143018470470A46002142
:1015A000018C4FF6DF7319404FF6FF7303EA021305
:1015B0001943018470470A460021018C4FF67F735E
:1015C00019404FF6FF7303EA021319430184704771
:1015D0000A460021018C4FF6FF5319404FF6FF7366
:1015E00003EA02231943018470470A460021018C53
:1015F0004FF2FF7319404FF6FF7303EA02231943BA
:10160000018470470A460021018C4DF6FF73194092
:101610004FF6FF7303EA023319430184704730B574
:10162000002301248C40A3B2048C9C430484048CCA
:1016300002FA01F5ADB22C43048430BD30B500236D
:1016400004248C40A3B2048C9C430484048C02FACE
:1016500001F5ADB22C43048430BD70B503460020C3
:1016600000241846183001258D40ACB21D8CA543CE
:101670001D8409B1082909D100EB6100056825F036
:10168000700505600568154305600EE00D1FC5F384
:101690004E052844056825F4E045056005684FF6C9
:1016A000FF7606EA02263543056070BD21B1028847
:1016B00042F00202028004E002884FF6FD731A40F5
:1016C0000280704721B1028842F00402028004E0E7
:1016D00002884FF6FB731A400280704721B182885E
:1016E00042F08002828004E082884FF67F731A40C5
:1016F0008280704702884FF6F7731A400280028892
:101700000A430280704782884FF68F731A408280A6
:1017100082880A438280704702894FF6F8731A4024
:10172000028102890A430281704702894FF67F7362
:101730001A40028102890A430281704781847047FE
:101740008185704781867047018770478187704720
:10175000A0F84010704702884FF6FF431A400280FD
:1017600002880A43028070470146888E704701460E
:10177000088F70470146888F70470146B1F84000D6
:1017800070470146888C70470146088D70470246B5
:101790000020138A0B400BB1012000E000207047AD
:1017A000CA430282704730B502460020002300245D
:1017B000158A05EA0103958905EA010413B10CB104
:1017C000012000E0002030BDCA43028270470000C3
:1017D00010B50446FB48844209D101218803FFF774
:1017E0009FF800214FF48040FFF79AF832E0F64866
:1017F000844209D101214804FFF79FF800214FF4EA
:101800000030FFF79AF825E0F048844209D1012121
:101810008804FFF792F800214FF48020FFF78DF83D
:1018200018E0EB48844209D10121C804FFF785F88C
:1018300000214FF40020FFF780F80BE0E5488442D8
:1018400008D101210805FFF778F800214FF4801036
:10185000FFF773F810BD2DE9F04786B005460E4638
:101860000024A24600BFA1460027B08900B100BFF6
:101870002F462C8A4CF6FF700440F08804432C82DB
:10188000AC894EF6F3100440B08831890843718961
:1018900008430443AC81AC8A4FF6FF400440B08952
:1018A0000443AC8201A8FEF7B4FFC648874202D1C8
:1018B000DDF810A001E0DDF80CA0A88900F40040DC
:1018C00040B10AEBCA0000EB0A1031684900B0FBD6
:1018D000F1F807E00AEBCA0000EB0A103168890052
:1018E000B0FBF1F86420B8FBF0F00401200964219A
:1018F00001FB1089A88900F4004040B1322000EBC0
:10190000C900B0FBF1F000F00700044308E032200A
:1019100000EB09106421B0FBF1F000F00F0004436C
:101920002C8106B0BDE8F0874FF41651016000210C
:101930008180C18001810C2141810021818170471A
:1019400010B502460020108A4FF2FF0318400B88A2
:101950004C8823438C882343CC882343184310822C
:1019600010BD0021018041808180C180704721B17C
:10197000828942F40052828104E082894DF6FF732D
:101980001A4082817047F0B50346002400260025E6
:10199000002040F66A17B94200D100BF1846C1F3D3
:1019A000421401F01F06012707FA06F5012C01D1A8
:1019B0000C3004E0022C01D1103000E014301AB1D8
:1019C00007682F43076002E00768AF430760F0BD78
:1019D0001AB1838A0B43838202E0838A8B4383821A
:1019E0007047028A4FF6F0731A400282028A0A4355
:1019F0000282704782894FF2FF731A408281828986
:101A00000A438281704721B1828942F002028281B9
:101A100004E082894FF6FD731A4082817047028A82
:101A20004FF6DF731A400282028A0A43028270472D
:101A300021B1028A42F48042028204E0028A4BF61B
:101A4000FF731A4002827047C1F308028280704718
:101A500001468888C0F308007047818941F0010180
:101A600081817047028BD2B20283028B42EA01224B
:101A700002837047028B02F47F420283028B0A4387
:101A80000283704721B1828A42F02002828204E000
:101A9000828A4FF6DF731A408282704721B1828AB0
:101AA00042F01002828204E0828A4FF6EF731A40FD
:101AB0008282704721B1828A42F00802828204E069
:101AC000828A4FF6F7731A408282704721B1828969
:101AD00042F40042828103E08289C2F30E028281D5
:101AE000704721B1828A42F40062828204E0828AD5
:101AF0004FF2FF731A4082827047828A4FF6FB735F
:101B00001A408282828A0A438282704721B1828A85
:101B100042F00202828204E0828A4FF6FD731A408C
:101B20008282704702460020B1F5007F00D100BFDD
:101B300013880B400BB1012000E00020704701F436
:101B40000072B2F5007F00D100BFCA430280704727
:101B500070B50246002400230025002040F66A16D6
:101B6000B14200D100BFC1F3421501F01F030126AD
:101B700006FA03F3012D02D19689334006E0022DC7
:101B800002D1168A334001E0968A33400C120126B6
:101B900006FA04F41688344013B10CB1012000E0B9
:101BA000002070BD10B50022002340F66A14A14247
:101BB00000D100BF0A1201249440A3B2DC43048088
:101BC00010BD0000003801400044004000480040C3
:101BD000004C0040005000400CB5002001900090E7
:101BE0006C48006840F480306A49086000BF69486A
:101BF000006800F4003000900198401C01900098AB
:101C000018B90198B0F5A06FF1D16248006800F4EE
:101C1000003010B10120009001E0002000900098F9
:101C2000012843D15C48006840F010005A49086020
:101C30000846006820F0030008600846006840F08D
:101C400002000860534840685249486008464068AE
:101C500048600846406840F4806048600846406834
:101C600020F47C1048600846406840F4E810486062
:101C70000846006840F08070086000BF4548006872
:101C800000F000700028F9D04248406820F00300BE
:101C9000404948600846406840F00200486000BF84
:101CA0003C48406800F00C000828F9D10CBD10B584
:101CB000FFF792FF10BD10B53648006840F00100F4
:101CC0003449086008464068344908403149486052
:101CD00008460068324908402E49086008460068F6
:101CE00020F4802008600846406820F4FE00486028
:101CF0004FF41F008860FFF7DAFF4FF000602949BA
:101D0000086010BD10B5002100200022214B5B6847
:101D100003F00C0121B1042906D0082928D107E0DD
:101D2000214B224C236027E01F4B204C236023E0F3
:101D3000184B5B6803F47010164B5B6803F4803239
:101D4000022303EB904022B9194B4343174C236005
:101D50000DE0104B5B6803F4003323B1144B434395
:101D6000124C236003E0104B4343104C236003E00C
:101D70000D4B0E4C236000BF00BF064B5B68C3F3E6
:101D800003130C4CE15C094B1B68CB40074C2360F0
:101D900010BD000000100240002002400000FFF8CB
:101DA000FFFFF6FE08ED00E000127A0014000020AC
:101DB00000093D001800002010B54FF4A060FEF7A8
:101DC0000BFA10BD01480249086070470400FA058B
:101DD0000CED00E010B56FF00400FEF74CFA2E4851
:101DE00000682E49B0FBF1F02D49087008460078D4
:101DF00000EB4001C1EBC0104FF6FF7101EAC000DB
:101E00002849088010BD0146254A12784A434FF000
:101E1000E0235A6100229A611A46126942F00102D7
:101E20001A6100BF4FF0E022106900F001021AB100
:101E300000F48032002AF5D04FF0E022126922F03F
:101E400001024FF0E0231A6100229A6170470146B7
:101E5000144A12884A434FF0E0235A6100229A61E3
:101E60001A46126942F001021A6100BF4FF0E022E7
:101E7000106900F001021AB100F48032002AF5D096
:101E80004FF0E022126922F001024FF0E0231A61C4
:101E900000229A61704700001400002000127A00AE
:101EA000280000202A000020014600BF704770B5BE
:101EB00004460D4600BF40214548FFF733FE002889
:101EC000F9D0E1B24248FFF7BFFD204670BD10B522
:101ED00086B00446012144F20400FEF707FD3C48A9
:101EE000FFF776FC4FF40070ADF8140003208DF876
:101EF000160018208DF8170005A93648FEF73AFAA3
:101F000001940020ADF80800ADF80A00ADF80C000F
:101F1000ADF810000820ADF80E0001A92C48FFF71D
:101F20009AFC25208DF8000003208DF801008DF823
:101F3000020001208DF803006846FEF752F90122E5
:101F400040F225512248FFF71EFD01212048FFF7EE
:101F50000EFD06B010BD10B540F225511C48FFF72C
:101F6000F7FD10B31A48FFF773FDC4B21A48008892
:101F700000F40040C8B91848008800F4804060B1FF
:101F80000A2C03D000201449088020E01248008861
:101F900040F400401049088019E00D2C06D10E488D
:101FA000008840F480400C49088010E00A4800880E
:101FB000C0F30D0009490C5407480088401C06492D
:101FC000088008460088C72801DD0020088010BD71
:101FD0000038014000080140300000206800002067
:101FE00008B501211020FEF781FC4FF40050ADF838
:101FF000000010208DF8030003208DF802006946D0
:102000000148FEF7B7F908BD0010014010B586B0D1
:10201000044601210420FEF769FC01214804FEF773
:1020200072FC0820ADF8140004208DF8170005A9F3
:10203000CA48FEF79FF90420ADF8140003208DF87C
:10204000160018208DF8170005A9C448FEF792F96C
:1020500026208DF8100001208DF811008DF8120057
:102060008DF8130004A8FEF7BCF800940020ADF82A
:102070000400ADF80600ADF80800ADF80C000C2027
:10208000ADF80A006946B648FFF7E5FB012240F2C9
:102090002551B348FFF777FC0121B148FFF767FCF2
:1020A00006B010BD10B540F22551AD48FFF750FD08
:1020B000E0B1AB48FFF7CCFCAA49AB4A1278885490
:1020C00008460078552803D0A748007800B910BD0D
:1020D000A5480078401CA4490870084600780B28E1
:1020E00004D1002008700120A049087000BFEEE76D
:1020F00070B504460D4629462046FFF7A5FC00BFF3
:1021000040212046FFF70EFD0028F9D070BD70B5C4
:1021100005460C4604E021782846FFF7E9FF641CD9
:1021200020780028F7D170BD2DE9F0474FF0000A64
:102130008E48007801287CD100208C49087089489D
:102140000078552876D187484078512848D185496C
:102150008978844AD27841EA022108B200F011FE5F
:1021600080460022824B00F094FD06460022814BFF
:1021700000F01DFD044600F041FE7F4908607949EA
:102180000979784A527941EA022108B200F0F9FD52
:1021900080460022764B00F07CFD06460022754BFF
:1021A00000F005FD044600F029FE734948606D49C2
:1021B00089796C4AD27941EA022108B200F0E1FD46
:1021C000804600226A4B00F064FD06460022694BFF
:1021D00000F0EDFC044600F011FE674988609BE0CA
:1021E0006048407852284BD15E4989785D4AD27860
:1021F00041EA022108B200F0C4FD804600225C4B97
:1022000000F047FD064600225C4B00F0D0FC04467F
:1022100000F0F4FD5A49086052490979514A52794F
:1022200041EA022108B200F0ACFD80460022504B8A
:1022300001E091E07FE000F02CFD064600224F4BCC
:1022400000F0B5FC044600F0D9FD4D494860454911
:102250008979444AD27941EA022108B200F091FD1D
:1022600006460022424B00F014FD04460022434B78
:1022700000F09DFC804600F0C1FD414988604BE0C4
:1022800038484078532847D136498978354AD2783A
:1022900041EA022108B200F074FD06460022344BE8
:1022A00000F0F7FC04460022364B00F080FC80462C
:1022B00000F0A4FD344908602A490979294A527975
:1022C00041EA022108B200F05CFD06460022284BDC
:1022D00000F0DFFC804600222A4B00F068FC044638
:1022E00000F08CFD284948601E4989791D4AD27941
:1022F00041EA022108B200F044FD064600221C4BD0
:1023000000F0C7FC044600221E4B00F050FC804643
:1023100000F074FD1C4988604FF0000A07E00020BF
:10232000104901F80A000AF1010000F0FF0ABAF1B1
:102330001E0FF4DB10E04FF0000A07E0002009490F
:1023400001F80A000AF1010000F0FF0ABAF11E0FBD
:10235000F4DB0020BDE8F0870120FBE70008014026
:1023600000440040300100203500002034000020EF
:102370000000E040000030405001002000409F403D
:102380005C010020008066406801002000B587B035
:1023900001210846FEF7B7FA01210820FEF7A6FA48
:1023A0004FF44060ADF8000004208DF8030069464A
:1023B0006148FDF7DFFF04A8FEF7FCFE0020ADF842
:1023C00010004FF6FE70ADF814000020ADF81600B6
:1023D000ADF8120004A94FF08040FEF7BFFB0023C8
:1023E0001A4603214FF08040FEF7C7FF01A8FEF711
:1023F000F4FE0A20ADF80C0001A94007FEF741FEEB
:1024000001218807FFF7CCF9012211469007FEF75A
:102410001CFF00214FF08040FFF790F90121880751
:10242000FEF7F8FE07B000BD00B587B0012104201B
:10243000FEF769FA01210820FEF758FA4FF44070C0
:10244000ADF8000004208DF8030069463A48FDF716
:1024500091FF04A8FEF7AEFE0020ADF810004FF685
:10246000FF70ADF814000020ADF81600ADF81200B2
:1024700004A93248FEF772FB00231A4603212F48B5
:10248000FEF77BFF01A8FEF7A8FE0A20ADF80C00BE
:1024900001A92A48FEF7F5FD01212848FFF780F938
:1024A000012211462548FEF7D0FE00212348FFF700
:1024B00045F901212148FEF7ADFE07B000BD0146F8
:1024C000022904D003290BD0042919D10FE04FF0C1
:1024D0008042928C10B200224FF080439A8411E027
:1024E000174A128810B20022154B1A800AE0134ACC
:1024F0002432128810B20022104B24331A8001E0DB
:10250000002000BF00BF70470C48103000880B4807
:102510001030008820F00100084910310880704711
:102520004FF08040008A4FF08040008A20F0010088
:102530004FF0804108827047000C014000080040C5
:10254000240400407FB505460C4601210220FEF719
:10255000DAF9ADF80850ADF804400020ADF80A00F3
:10256000ADF8060001A92948FEF7F8FA0122114644
:102570002648FEF76AFE1D208DF8000002208DF827
:1025800001008DF8020001208DF803006846FDF778
:1025900028FE01211D48FEF73DFE7FBD10B501213B
:1025A0001A48FFF700F980B301211848FFF70CF92A
:1025B0000220FFF784FF164908600420FFF77FFF21
:1025C00014490860144A1168144A106800F0A0F811
:1025D000134908600F4801680D48006800F0B7F81B
:1025E000104908600E480068096808440E490860F0
:1025F0000B4800680B49096808440C490860084604
:1026000001680948006800F042F910BD000400406C
:102610003C000020400000205C01002068010020F8
:102620004C00002050000020440000204800002002
:1026300030B589B005460C460121C802FEF756F9AF
:1026400001210420FEF752F94FF4A060ADF82000FC
:1026500018208DF8230003208DF8220008A92848AF
:10266000FDF788FEADF81850ADF814400020ADF825
:102670001A00ADF8160005A92248FEF76FFA60208F
:10268000ADF804000120ADF806000020ADF80A0006
:10269000ADF80C0001A91B48FEF79DFA01A91948E5
:1026A000FEF728FB01211748FEF7C0FD0821154859
:1026B000FEF7E0FE08211348FEF7F2FE0121114863
:1026C000FEF7A8FE01210F48FEF7A4FD09B030BDBA
:1026D00008B501210920FEF709F90F20ADF8000027
:1026E00001210948FDF717FF10208DF80300032092
:1026F0008DF8020069460548FDF73CFE08BD000064
:1027000000080140002C014000023000000C014094
:102710002DE9F84F05460C46774E784F7849284604
:1027200000F066F900903946204600F067F98246CD
:102730003046009900F062F98346514600F006F9F0
:10274000814600F02FFB80464046BDE8F88F2DE91A
:10275000FC5FDFF8B0A1504600F03DFB06460022CA
:10276000694B00F096FA044600F048FB834667493F
:102770000968674A12681144084600F0F9FA654989
:1027800008606548006800F026FB06464FF0663298
:10279000624B00F00CFA044600F030FB5E49086022
:1027A0005C48006800F017FB80464FF033325C4B0A
:1027B00000F0FDF906460F465748006800F00BFB95
:1027C00032463B46CDE9000100F04AF9044600F0EC
:1027D00015FB51490860084601685248006800F03E
:1027E000B5F85049086050494E48006800F02CFB8D
:1027F00002D24D484B4908604C494A48006800F0F5
:1028000019FB02D2494847490860594645480068C3
:1028100000F0F4F8044651463F48006800F0EEF836
:102820000546214600F092F8414908604148006899
:10283000401C404908603E48006800F0B3FABDE81B
:10284000FC9F0146002901DA484200E00846704733
:1028500041F65830384909684242914202DA414211
:10286000354A116034490968814201DD3249086006
:10287000324909684242914202DA41422F4A1160CC
:102880002E490968814201DD2C490860704710B566
:1028900004460B46FFF7DCFF002C07DD002028492B
:1028A000086001202749C1F8840106E0012024497D
:1028B000086000202349C1F884012046FFF7C1FFCA
:1028C00021490880002B08DD01201D4908310860DE
:1028D00000201C49C1F88C0107E00020184908318C
:1028E000086001201749C1F88C011846FFF7A9FFBD
:1028F00015490831088010BD00002A430000A0419E
:10290000000080BF0000924200406D403C0000206B
:1029100040000020580000205C0000206666E63F72
:102920003333D33F6000002000401C4600401CC6EB
:1029300054000020640000204400002048000020D3
:102940008081214200802142342C0140F0B480EA91
:102950000102D40F4200B2EB410F02D202460846F8
:1029600011464A0042D0C30DDDB2C1F3C752AD1AC1
:10297000202D35DAC1F3160141F4000204B15242B0
:10298000C5F1200602FA06F12A411044B3EBD05FEC
:1029900023D0C4B1012DA0EBC35009DCF0BC4FF033
:1029A000004202EAC352DBB200F5000000F080BA38
:1029B000400000F1807000EBC350A0F1807040EA4D
:1029C000D170490009E0490841EAC071A0EBC35049
:1029D00000F50000400800EBC350F0BC00F05FBA07
:1029E0006142012202EB4101001BF6E7F0BC704797
:1029F00081F00041AAE780F00040A7E780EA0102E9
:102A000010B502F00043400022D04A001FD0010E52
:102A100001EB1261C0F35600C2F3560240F400000D
:102A200042F40002A0FB022000047F39140400D00D
:102A3000401C50EA124001D44000491EC2B20C06AC
:102A400004EBD010401C4008802A02D003E0002094
:102A500010BD20F00100002900DA0020184310BD4D
:102A60002DE9FE4F804681EA0300C00F0C4600901E
:102A700021F0004123F00045B8EB0200A94105D246
:102A80004046214690461C460B46024623F0004035
:102A9000104347D0270DC7F30A00C3F30A51029031
:102AA000401A019040286BDAC3F3130040F4801BF6
:102AB0000098924620B10023D2EB030A63EB0B0B84
:102AC00001985946C0F14002504600F0C7F9064649
:102AD0000D4650465946019A00F0CFF910EB080018
:102AE0006141002487EA115284EAE7731A4340D017
:102AF000009A62B3019A012A4FEA075215DC001BC3
:102B000061EB02014FF0004202EA0752CDE90042B8
:102B1000001C41F5801132462B4600F006FA03B046
:102B2000BDE8F08F40462146F9E7001B61EB02014A
:102B3000001C41F5801300185B412018A2F5001716
:102B400047EB030140EAD570B6196D4111E06D08FD
:102B50004FEA360645EAC0754FEA0752001B61EBA3
:102B60000201001C41F5801149084FEA30000019AC
:102B7000514132462B4603B0BDE8F04F00F0C6B9D4
:102B80000098012240000023D0EB020263EBE073C7
:102B9000009821464FEAE074B8EB000061EB0401B5
:102BA000E9E783F000435BE781F0004158E72DE956
:102BB000FE4F81EA030404F0004421F00041009438
:102BC0004FF0000B23F0004350EA01045ED052EABC
:102BD00003045BD0C3F30A54C1F30A552C44A4F296
:102BE000F3340194A0FB0254C1F3130141F48011AA
:102BF000C3F3130343F4801301FB024400FB034EB1
:102C0000840A970A44EA815447EA8357A4FB076879
:102C100002958D0A05FB07854FEA932C04FB0C54A3
:102C20002705029D4FEA065847EA1637B5EB080517
:102C30006EEB070C870E920E47EA811742EA831269
:102C4000A7FB0201B6EB0B0164EB00042B0D43EA7A
:102C50000C335E1844EB1C50DA465146E7FB020188
:102C6000C5F313044FEA0B3343EA14534FEA04321B
:102C7000019C43EA0603A4F10C040294009CCDE9F4
:102C800000B400F052F903B0BDE8F08F0020014617
:102C9000F9E72DE9F04D81EA030404F0004B21F03F
:102CA000004514464FF0000A23F0004150EA0502A7
:102CB00020D054EA01021DD0C5F30A570246C5F3DD
:102CC0001303C1F31300C1F30A5640F4801543F413
:102CD0008013A7EB0608101BD64608F2FD3873EBED
:102CE000050002D308F1010801E092185B41B8F138
:102CF000000F03DA00200146BDE8F08D00204FF4FC
:102D00008011064684460EE0171B73EB050705D3BA
:102D1000121B63EB050306434CEA010C49084FEA1A
:102D2000300092185B4150EA0107EDD152EA0300EE
:102D300012D082EA040083EA0501084305D0101B83
:102D4000AB4106D20122002306E000224FF00043EF
:102D500002E06FF0010253101AEB06004CEB085131
:102D600010EB0A0041EB0B01BDE8F04D00F0CEB8CE
:102D7000C10F80EAE0700844CA079623002100F0E2
:102D800097B80EB5C10F80EAE0700844CA07002169
:102D900040F233438DE80E000A460B4600F0C5F8BA
:102DA00003B000BD00F0004220F00040C10DC0F3B0
:102DB000160040F400007F2901DA002070479629B0
:102DC00003DCC1F19601C84001E096398840002A31
:102DD000F4D04042704700F0004230F000400AD08A
:102DE000C10D01F56071C0F3160042EA0151C2083D
:102DF00040071143704700200146704701F000432F
:102E000030B421F0004150EA010206D00A0DA2F5CB
:102E10006072C1F31301002A02DC30BC002070474D
:102E2000440F44EAC104C100E01830BC00EBC250BA
:102E300000F035B8002801DBC0F10040002901DBBB
:102E4000C1F1004181427047002801DBC0F1004020
:102E5000002901DBC1F1004188427047202A04DBD0
:102E6000203A00FA02F1002070479140C2F120039D
:102E700020FA03F3194390407047202A06DBCB1752
:102E8000203A41FA02F043EAE07306E041FA02F325
:102E9000D040C2F1200291400843194670470029F2
:102EA000A8BF7047401C490008BF20F001007047D0
:102EB00010B4B0FA80FC00FA0CF050EA010404BF30
:102EC00010BC704749B1CCF1200421FA04F411FA86
:102ED0000CF118BF012121430843A3EB0C01CB1DCA
:102EE0004FEA00614FEA102042BF002010BC70473B
:102EF00000EBC35010440029A4BF10BC7047401C15
:102F0000490008BF20F0010010BC704710B5141E26
:102F100073F1000408DA401C41F1000192185B4192
:102F20001A4301D120F0010010BD2DE9F04D924669
:102F30009B4611B1B1FA81F202E0B0FA80F2203280
:102F40009046FFF78BFF04460F4640EA0A0041EA2D
:102F50000B0153465A46084313D0114653EA010069
:102F600019D0C8F14002504600F040F805460E4620
:102F7000504659464246FFF771FF084305D00120ED
:102F800004E020463946BDE8F08D0020054346EABE
:102F9000E0762C4337430A986305E40AA0EB080067
:102FA0000022FD0A44EA47540A3002D500200146B7
:102FB000E9E7010510196941DDE908450019694192
:102FC000BDE8F04DA2E70000064C074D06E0E068C2
:102FD00040F0010394E8070098471034AC42F6D360
:102FE000FDF7AAF85C3000087C300008202A04DBDA
:102FF000203A21FA02F00021704721FA02F3D04072
:10300000C2F120029140084319467047014A024923
:1030100000F013B8AF1E00082C00002002E008C822
:10302000121F08C1002AFAD170477047002001E042
:1030300001C1121F002AFBD170472DE9F04116464D
:103040000F460446002503E03946B047641C6D1C5A
:1030500020780028F8D12846BDE8F0817C300008AF
:1030600000000020680000001C300008E430000868
:1030700068000020100500002C300008000000004F
:1030800001020304010203040607080902040608FA
:1030900000A24A0400000000000000000102030436
:1030A0000607080900000000000000000000000002
:1030B0000000000000000000000000000000000010
:1030C0000000000000000000000000000000000000
:1030D00000000000000000000000000000000000F0
:0430E00000000000EC
:0400000508000131BD
:00000001FF
